{
  "_format": "hh-sol-artifact-1",
  "contractName": "DonateToACharity",
  "sourceName": "contracts/DonateToACharity.sol",
  "abi": [
    {
      "inputs": [],
      "stateMutability": "nonpayable",
      "type": "constructor"
    },
    {
      "anonymous": false,
      "inputs": [
        {
          "indexed": true,
          "internalType": "address",
          "name": "donor",
          "type": "address"
        },
        {
          "indexed": false,
          "internalType": "string",
          "name": "donorName",
          "type": "string"
        },
        {
          "indexed": false,
          "internalType": "uint256",
          "name": "amount",
          "type": "uint256"
        },
        {
          "indexed": false,
          "internalType": "string",
          "name": "charity",
          "type": "string"
        }
      ],
      "name": "NewDonor",
      "type": "event"
    },
    {
      "inputs": [],
      "name": "getDonors",
      "outputs": [
        {
          "components": [
            {
              "internalType": "address",
              "name": "donorAddress",
              "type": "address"
            },
            {
              "internalType": "string",
              "name": "donorName",
              "type": "string"
            },
            {
              "internalType": "uint256",
              "name": "amount",
              "type": "uint256"
            },
            {
              "internalType": "string",
              "name": "charity",
              "type": "string"
            }
          ],
          "internalType": "struct DonateToACharity.DonorInfo[]",
          "name": "",
          "type": "tuple[]"
        }
      ],
      "stateMutability": "view",
      "type": "function"
    },
    {
      "inputs": [
        {
          "internalType": "string",
          "name": "_donorName",
          "type": "string"
        },
        {
          "internalType": "string",
          "name": "_charity",
          "type": "string"
        }
      ],
      "name": "sendEthToCharity",
      "outputs": [],
      "stateMutability": "payable",
      "type": "function"
    }
  ],
  "bytecode": "0x608060405234801561001057600080fd5b50600180546001600160a01b031916331790556106d4806100326000396000f3fe6080604052600436106100295760003560e01c806396f300d41461002e578063d11d3a6714610059575b600080fd5b34801561003a57600080fd5b5061004361006e565b6040516100509190610480565b60405180910390f35b61006c6100673660046105ca565b610211565b005b60606000805480602002602001604051908101604052809291908181526020016000905b8282101561020857600084815260209081902060408051608081019091526004850290910180546001600160a01b0316825260018101805492939192918401916100db9061062e565b80601f01602080910402602001604051908101604052809291908181526020018280546101079061062e565b80156101545780601f1061012957610100808354040283529160200191610154565b820191906000526020600020905b81548152906001019060200180831161013757829003601f168201915b50505050508152602001600282015481526020016003820180546101779061062e565b80601f01602080910402602001604051908101604052809291908181526020018280546101a39061062e565b80156101f05780601f106101c5576101008083540402835291602001916101f0565b820191906000526020600020905b8154815290600101906020018083116101d357829003601f168201915b50505050508152505081526020019060010190610092565b50505050905090565b600034116102755760405162461bcd60e51b815260206004820152602760248201527f496e73756666696369656e742066756e64732c20506c656173652066756e64206044820152661858d8dbdd5b9d60ca1b606482015260840160405180910390fd5b6040805160808101825233815260208082018581523493830193909352606082018490526000805460018101825590805282517f290decd9548b62a8d60345a988386fc84ba6bc95484008f6362f93160ef3e563600490920291820180546001600160a01b0319166001600160a01b0390921691909117815593518051939493610328937f290decd9548b62a8d60345a988386fc84ba6bc95484008f6362f93160ef3e56490930192919091019061039a565b50604082015160028201556060820151805161034e91600384019160209091019061039a565b505050336001600160a01b03167fc7eb6e363bcdaf8781f74469f52c5fd4364ddeb7f895143034c9c7dc766a5f4183348460405161038e93929190610669565b60405180910390a25050565b8280546103a69061062e565b90600052602060002090601f0160209004810192826103c8576000855561040e565b82601f106103e157805160ff191683800117855561040e565b8280016001018555821561040e579182015b8281111561040e5782518255916020019190600101906103f3565b5061041a92915061041e565b5090565b5b8082111561041a576000815560010161041f565b6000815180845260005b818110156104595760208185018101518683018201520161043d565b8181111561046b576000602083870101525b50601f01601f19169290920160200192915050565b60006020808301818452808551808352604092508286019150828160051b87010184880160005b8381101561051957888303603f19018552815180516001600160a01b03168452878101516080898601819052906104e082870182610433565b9150508782015188860152606080830151925085820381870152506105058183610433565b9689019694505050908601906001016104a7565b509098975050505050505050565b634e487b7160e01b600052604160045260246000fd5b600082601f83011261054e57600080fd5b813567ffffffffffffffff8082111561056957610569610527565b604051601f8301601f19908116603f0116810190828211818310171561059157610591610527565b816040528381528660208588010111156105aa57600080fd5b836020870160208301376000602085830101528094505050505092915050565b600080604083850312156105dd57600080fd5b823567ffffffffffffffff808211156105f557600080fd5b6106018683870161053d565b9350602085013591508082111561061757600080fd5b506106248582860161053d565b9150509250929050565b600181811c9082168061064257607f821691505b6020821081141561066357634e487b7160e01b600052602260045260246000fd5b50919050565b60608152600061067c6060830186610433565b84602084015282810360408401526106948185610433565b969550505050505056fea264697066735822122096217c21a96ac0b604c272a3c8bc67fb0921ab41ed70e70e53ff84d52d24ee8f64736f6c63430008090033",
  "linkReferences": {},
  "deployedLinkReferences": {}
}